:020000020000FC
:040000000C9430002C
:040014000C947F00C9
:1000600008E00EBF0FE50DBFF89400E009BF08E0FF
:1000700002BD00E004BD05E005BD02B50830E9F7AA
:1000800000E409BFD19AA19A8D9A8C9AD49806E877
:1000900006B904EC07B978940C944F00FFCFD99AB5
:1000A000A99A0FED0ABD00E00BBD01E80FBD01E00C
:1000B0000EBD4AE04030E9F068E073E020E030E057
:1000C000369A349BFECF349A04B115B11695079534
:1000D0007A95E1F7200F310F6A9591F7303051F39F
:1000E00001E20FBD53E0503009F0FDCF01E80FBD34
:1000F000E1CF00E00EBD0FBDD998A99808958FB546
:0E010000813809F44A95813209F45A95189510
:00000001FF
